{
  "contractName": "CandleAuction",
  "abi": [
    {
      "anonymous": false,
      "inputs": [
        {
          "indexed": true,
          "internalType": "uint256",
          "name": "auctionId",
          "type": "uint256"
        },
        {
          "indexed": true,
          "internalType": "address",
          "name": "auctioneer",
          "type": "address"
        },
        {
          "indexed": false,
          "internalType": "uint256",
          "name": "endBlock",
          "type": "uint256"
        }
      ],
      "name": "AuctionCreated",
      "type": "event"
    },
    {
      "anonymous": false,
      "inputs": [
        {
          "indexed": true,
          "internalType": "uint256",
          "name": "auctionId",
          "type": "uint256"
        },
        {
          "indexed": true,
          "internalType": "address",
          "name": "winner",
          "type": "address"
        },
        {
          "indexed": false,
          "internalType": "uint256",
          "name": "amount",
          "type": "uint256"
        }
      ],
      "name": "AuctionEnded",
      "type": "event"
    },
    {
      "anonymous": false,
      "inputs": [
        {
          "indexed": true,
          "internalType": "uint256",
          "name": "auctionId",
          "type": "uint256"
        },
        {
          "indexed": true,
          "internalType": "address",
          "name": "bidder",
          "type": "address"
        },
        {
          "indexed": false,
          "internalType": "uint256",
          "name": "amount",
          "type": "uint256"
        }
      ],
      "name": "BidPlaced",
      "type": "event"
    },
    {
      "inputs": [],
      "name": "auctionCount",
      "outputs": [
        {
          "internalType": "uint256",
          "name": "",
          "type": "uint256"
        }
      ],
      "stateMutability": "view",
      "type": "function",
      "constant": true
    },
    {
      "inputs": [
        {
          "internalType": "uint256",
          "name": "",
          "type": "uint256"
        }
      ],
      "name": "auctions",
      "outputs": [
        {
          "internalType": "address payable",
          "name": "auctioneer",
          "type": "address"
        },
        {
          "internalType": "uint256",
          "name": "startBlock",
          "type": "uint256"
        },
        {
          "internalType": "uint256",
          "name": "endBlock",
          "type": "uint256"
        },
        {
          "internalType": "bool",
          "name": "ended",
          "type": "bool"
        },
        {
          "internalType": "address",
          "name": "highestBidder",
          "type": "address"
        },
        {
          "internalType": "uint256",
          "name": "highestBid",
          "type": "uint256"
        }
      ],
      "stateMutability": "view",
      "type": "function",
      "constant": true
    },
    {
      "inputs": [
        {
          "internalType": "uint256",
          "name": "",
          "type": "uint256"
        },
        {
          "internalType": "address",
          "name": "",
          "type": "address"
        }
      ],
      "name": "bids",
      "outputs": [
        {
          "internalType": "uint256",
          "name": "",
          "type": "uint256"
        }
      ],
      "stateMutability": "view",
      "type": "function",
      "constant": true
    },
    {
      "inputs": [],
      "name": "randomnessBlockInterval",
      "outputs": [
        {
          "internalType": "uint256",
          "name": "",
          "type": "uint256"
        }
      ],
      "stateMutability": "view",
      "type": "function",
      "constant": true
    },
    {
      "inputs": [
        {
          "internalType": "uint256",
          "name": "duration",
          "type": "uint256"
        }
      ],
      "name": "createAuction",
      "outputs": [],
      "stateMutability": "nonpayable",
      "type": "function"
    },
    {
      "inputs": [
        {
          "internalType": "uint256",
          "name": "auctionId",
          "type": "uint256"
        }
      ],
      "name": "placeBid",
      "outputs": [],
      "stateMutability": "payable",
      "type": "function",
      "payable": true
    },
    {
      "inputs": [
        {
          "internalType": "uint256",
          "name": "auctionId",
          "type": "uint256"
        }
      ],
      "name": "withdrawBid",
      "outputs": [],
      "stateMutability": "nonpayable",
      "type": "function"
    },
    {
      "inputs": [
        {
          "internalType": "uint256",
          "name": "auctionId",
          "type": "uint256"
        }
      ],
      "name": "endAuction",
      "outputs": [],
      "stateMutability": "nonpayable",
      "type": "function"
    },
    {
      "inputs": [
        {
          "internalType": "uint256",
          "name": "auctionId",
          "type": "uint256"
        }
      ],
      "name": "randomEndAuction",
      "outputs": [],
      "stateMutability": "nonpayable",
      "type": "function"
    }
  ],
  "bytecode": "0x6080604052600560025534801561001557600080fd5b50611155806100256000396000f3fe6080604052600436106100865760003560e01c80635a9e3fb6116100595780635a9e3fb61461015e5780638968e03b146101875780639979ef45146101b2578063b9a2de3a146101ce578063d5563f31146101f757610086565b80630eaaf4c81461008b5780632ad71573146100b45780633f1ffcec146100df578063571a26a01461011c575b600080fd5b34801561009757600080fd5b506100b260048036038101906100ad9190610c5a565b610220565b005b3480156100c057600080fd5b506100c9610359565b6040516100d69190610c96565b60405180910390f35b3480156100eb57600080fd5b5061010660048036038101906101019190610d0f565b61035f565b6040516101139190610c96565b60405180910390f35b34801561012857600080fd5b50610143600480360381019061013e9190610c5a565b610384565b60405161015596959493929190610d9a565b60405180910390f35b34801561016a57600080fd5b5061018560048036038101906101809190610c5a565b61040d565b005b34801561019357600080fd5b5061019c61066f565b6040516101a99190610c96565b60405180910390f35b6101cc60048036038101906101c79190610c5a565b610675565b005b3480156101da57600080fd5b506101f560048036038101906101f09190610c5a565b610853565b005b34801561020357600080fd5b5061021e60048036038101906102199190610c5a565b610a61565b005b60006003600083815260200190815260200160002060003373ffffffffffffffffffffffffffffffffffffffff1673ffffffffffffffffffffffffffffffffffffffff168152602001908152602001600020549050600081116102b8576040517f08c379a00000000000000000000000000000000000000000000000000000000081526004016102af90610e58565b60405180910390fd5b60006003600084815260200190815260200160002060003373ffffffffffffffffffffffffffffffffffffffff1673ffffffffffffffffffffffffffffffffffffffff168152602001908152602001600020819055503373ffffffffffffffffffffffffffffffffffffffff166108fc829081150290604051600060405180830381858888f19350505050158015610354573d6000803e3d6000fd5b505050565b60015481565b6003602052816000526040600020602052806000526040600020600091509150505481565b60006020528060005260406000206000915090508060000160009054906101000a900473ffffffffffffffffffffffffffffffffffffffff16908060010154908060020154908060030160009054906101000a900460ff16908060030160019054906101000a900473ffffffffffffffffffffffffffffffffffffffff16908060040154905086565b6000806000838152602001908152602001600020905080600201544311610469576040517f08c379a000000000000000000000000000000000000000000000000000000000815260040161046090610ec4565b60405180910390fd5b8060030160009054906101000a900460ff16156104bb576040517f08c379a00000000000000000000000000000000000000000000000000000000081526004016104b290610f30565b60405180910390fd5b60025481600201546104cd9190610f7f565b43101561050f576040517f08c379a000000000000000000000000000000000000000000000000000000000815260040161050690611025565b60405180910390fd5b60018160030160006101000a81548160ff021916908315150217905550600073ffffffffffffffffffffffffffffffffffffffff168160030160019054906101000a900473ffffffffffffffffffffffffffffffffffffffff1673ffffffffffffffffffffffffffffffffffffffff16146105f4578060000160009054906101000a900473ffffffffffffffffffffffffffffffffffffffff1673ffffffffffffffffffffffffffffffffffffffff166108fc82600401549081150290604051600060405180830381858888f193505050501580156105f2573d6000803e3d6000fd5b505b8060030160019054906101000a900473ffffffffffffffffffffffffffffffffffffffff1673ffffffffffffffffffffffffffffffffffffffff16827fd2aa34a4fdbbc6dff6a3e56f46e0f3ae2a31d7785ff3487aa5c95c642acea50183600401546040516106639190610c96565b60405180910390a35050565b60025481565b6000806000838152602001908152602001600020905080600201544311156106d2576040517f08c379a00000000000000000000000000000000000000000000000000000000081526004016106c990610f30565b60405180910390fd5b80600401543411610718576040517f08c379a000000000000000000000000000000000000000000000000000000000815260040161070f906110b7565b60405180910390fd5b60008160040154146107b45780600401546003600084815260200190815260200160002060008360030160019054906101000a900473ffffffffffffffffffffffffffffffffffffffff1673ffffffffffffffffffffffffffffffffffffffff1673ffffffffffffffffffffffffffffffffffffffff16815260200190815260200160002060008282546107ac9190610f7f565b925050819055505b338160030160016101000a81548173ffffffffffffffffffffffffffffffffffffffff021916908373ffffffffffffffffffffffffffffffffffffffff1602179055503481600401819055503373ffffffffffffffffffffffffffffffffffffffff16827f0e54eff26401bf69b81b26f60bd85ef47f5d85275c1d268d84f68d6897431c47346040516108479190610c96565b60405180910390a35050565b60008060008381526020019081526020016000209050806002015443116108af576040517f08c379a00000000000000000000000000000000000000000000000000000000081526004016108a690610ec4565b60405180910390fd5b8060030160009054906101000a900460ff1615610901576040517f08c379a00000000000000000000000000000000000000000000000000000000081526004016108f890610f30565b60405180910390fd5b60018160030160006101000a81548160ff021916908315150217905550600073ffffffffffffffffffffffffffffffffffffffff168160030160019054906101000a900473ffffffffffffffffffffffffffffffffffffffff1673ffffffffffffffffffffffffffffffffffffffff16146109e6578060000160009054906101000a900473ffffffffffffffffffffffffffffffffffffffff1673ffffffffffffffffffffffffffffffffffffffff166108fc82600401549081150290604051600060405180830381858888f193505050501580156109e4573d6000803e3d6000fd5b505b8060030160019054906101000a900473ffffffffffffffffffffffffffffffffffffffff1673ffffffffffffffffffffffffffffffffffffffff16827fd2aa34a4fdbbc6dff6a3e56f46e0f3ae2a31d7785ff3487aa5c95c642acea5018360040154604051610a559190610c96565b60405180910390a35050565b60016000815480929190610a74906110d7565b919050555060008143610a879190610f7f565b90506040518060c001604052803373ffffffffffffffffffffffffffffffffffffffff168152602001438152602001828152602001600015158152602001600073ffffffffffffffffffffffffffffffffffffffff1681526020016000815250600080600154815260200190815260200160002060008201518160000160006101000a81548173ffffffffffffffffffffffffffffffffffffffff021916908373ffffffffffffffffffffffffffffffffffffffff160217905550602082015181600101556040820151816002015560608201518160030160006101000a81548160ff02191690831515021790555060808201518160030160016101000a81548173ffffffffffffffffffffffffffffffffffffffff021916908373ffffffffffffffffffffffffffffffffffffffff16021790555060a082015181600401559050503373ffffffffffffffffffffffffffffffffffffffff166001547f6ff530872708bbb51bad8ea341564e4ea039807ad1331f61ab4c906a66875daf83604051610c139190610c96565b60405180910390a35050565b600080fd5b6000819050919050565b610c3781610c24565b8114610c4257600080fd5b50565b600081359050610c5481610c2e565b92915050565b600060208284031215610c7057610c6f610c1f565b5b6000610c7e84828501610c45565b91505092915050565b610c9081610c24565b82525050565b6000602082019050610cab6000830184610c87565b92915050565b600073ffffffffffffffffffffffffffffffffffffffff82169050919050565b6000610cdc82610cb1565b9050919050565b610cec81610cd1565b8114610cf757600080fd5b50565b600081359050610d0981610ce3565b92915050565b60008060408385031215610d2657610d25610c1f565b5b6000610d3485828601610c45565b9250506020610d4585828601610cfa565b9150509250929050565b6000610d5a82610cb1565b9050919050565b610d6a81610d4f565b82525050565b60008115159050919050565b610d8581610d70565b82525050565b610d9481610cd1565b82525050565b600060c082019050610daf6000830189610d61565b610dbc6020830188610c87565b610dc96040830187610c87565b610dd66060830186610d7c565b610de36080830185610d8b565b610df060a0830184610c87565b979650505050505050565b600082825260208201905092915050565b7f4e6f2066756e647320746f207769746864726177000000000000000000000000600082015250565b6000610e42601483610dfb565b9150610e4d82610e0c565b602082019050919050565b60006020820190508181036000830152610e7181610e35565b9050919050565b7f41756374696f6e206973207374696c6c206f6e676f696e670000000000000000600082015250565b6000610eae601883610dfb565b9150610eb982610e78565b602082019050919050565b60006020820190508181036000830152610edd81610ea1565b9050919050565b7f41756374696f6e2068617320616c726561647920656e64656400000000000000600082015250565b6000610f1a601983610dfb565b9150610f2582610ee4565b602082019050919050565b60006020820190508181036000830152610f4981610f0d565b9050919050565b7f4e487b7100000000000000000000000000000000000000000000000000000000600052601160045260246000fd5b6000610f8a82610c24565b9150610f9583610c24565b9250828201905080821115610fad57610fac610f50565b5b92915050565b7f4e6f7420656e6f75676820626c6f636b7320686176652070617373656420746f60008201527f2064657465726d696e652072616e646f6d6e6573730000000000000000000000602082015250565b600061100f603583610dfb565b915061101a82610fb3565b604082019050919050565b6000602082019050818103600083015261103e81611002565b9050919050565b7f426964206973206e6f7420686967686572207468616e2074686520637572726560008201527f6e74206869676865737420626964000000000000000000000000000000000000602082015250565b60006110a1602e83610dfb565b91506110ac82611045565b604082019050919050565b600060208201905081810360008301526110d081611094565b9050919050565b60006110e282610c24565b91507fffffffffffffffffffffffffffffffffffffffffffffffffffffffffffffffff820361111457611113610f50565b5b60018201905091905056fea264697066735822122072ddc90a6e1fac8fc4e230fe6640d57c17921bc044bf7baa8c0165b04e1c3c2b64736f6c63430008120033",
  "immutableReferences": {},
  "source": "// SPDX-License-Identifier: MIT\r\npragma solidity ^0.8.18;\r\n\r\ncontract CandleAuction {\r\n    struct Auction {\r\n        address payable auctioneer;\r\n        uint256 startBlock;\r\n        uint256 endBlock;\r\n        bool ended;\r\n        address highestBidder;\r\n        uint256 highestBid;\r\n    }\r\n\r\n    mapping(uint256 => Auction) public auctions;\r\n    uint256 public auctionCount;\r\n    uint256 public randomnessBlockInterval = 5;\r\n\r\n    mapping(uint256 => mapping(address => uint256)) public bids;\r\n\r\n    event AuctionCreated(uint256 indexed auctionId, address indexed auctioneer, uint256 endBlock);\r\n    event BidPlaced(uint256 indexed auctionId, address indexed bidder, uint256 amount);\r\n    event AuctionEnded(uint256 indexed auctionId, address indexed winner, uint256 amount);\r\n\r\n    function createAuction(uint256 duration) public {\r\n        auctionCount++;\r\n        uint256 endBlock = block.number + duration;\r\n        auctions[auctionCount] = Auction({\r\n            auctioneer: payable(msg.sender),\r\n            startBlock: block.number,\r\n            endBlock: endBlock,\r\n            ended: false,\r\n            highestBidder: address(0),\r\n            highestBid: 0\r\n        });\r\n\r\n        emit AuctionCreated(auctionCount, msg.sender, endBlock);\r\n    }\r\n\r\n    function placeBid(uint256 auctionId) public payable {\r\n        Auction storage auction = auctions[auctionId];\r\n        require(block.number <= auction.endBlock, \"Auction has already ended\");\r\n        require(msg.value > auction.highestBid, \"Bid is not higher than the current highest bid\");\r\n\r\n        if (auction.highestBid != 0) {\r\n            bids[auctionId][auction.highestBidder] += auction.highestBid;\r\n        }\r\n\r\n        auction.highestBidder = msg.sender;\r\n        auction.highestBid = msg.value;\r\n\r\n        emit BidPlaced(auctionId, msg.sender, msg.value);\r\n    }\r\n\r\n    function withdrawBid(uint256 auctionId) public {\r\n        uint256 amount = bids[auctionId][msg.sender];\r\n        require(amount > 0, \"No funds to withdraw\");\r\n\r\n        bids[auctionId][msg.sender] = 0;\r\n        payable(msg.sender).transfer(amount);\r\n    }\r\n\r\n    function endAuction(uint256 auctionId) public {\r\n        Auction storage auction = auctions[auctionId];\r\n        require(block.number > auction.endBlock, \"Auction is still ongoing\");\r\n        require(!auction.ended, \"Auction has already ended\");\r\n\r\n        auction.ended = true;\r\n        if (auction.highestBidder != address(0)) {\r\n            auction.auctioneer.transfer(auction.highestBid);\r\n        }\r\n\r\n        emit AuctionEnded(auctionId, auction.highestBidder, auction.highestBid);\r\n    }\r\n\r\n    function randomEndAuction(uint256 auctionId) public {\r\n        Auction storage auction = auctions[auctionId];\r\n        require(block.number > auction.endBlock, \"Auction is still ongoing\");\r\n        require(!auction.ended, \"Auction has already ended\");\r\n        require(block.number >= auction.endBlock + randomnessBlockInterval, \"Not enough blocks have passed to determine randomness\");\r\n\r\n        auction.ended = true;\r\n        if (auction.highestBidder != address(0)) {\r\n            auction.auctioneer.transfer(auction.highestBid);\r\n        }\r\n\r\n        emit AuctionEnded(auctionId, auction.highestBidder, auction.highestBid);\r\n    }\r\n}\r\n",
  "sourcePath": "C:\\Users\\Hp\\Desktop\\Web_dev\\candle-auction\\contracts\\CandleAuction.sol",
  "compiler": {
    "name": "solc",
    "version": "0.8.18+commit.87f61d96.Emscripten.clang"
  },
  "schemaVersion": "3.4.16",
  "updatedAt": "2024-07-24T07:35:39.393Z",
  "networkType": "ethereum",
  "devdoc": {
    "kind": "dev",
    "methods": {},
    "version": 1
  },
  "userdoc": {
    "kind": "user",
    "methods": {},
    "version": 1
  }
}